{
  "abi": [
    {
      "inputs": [
        {
          "internalType": "uint256",
          "name": "_maxPlayers",
          "type": "uint256"
        },
        {
          "internalType": "uint256",
          "name": "_usdEntryFee",
          "type": "uint256"
        },
        {
          "internalType": "address",
          "name": "_priceFeedAddress",
          "type": "address"
        },
        {
          "internalType": "address",
          "name": "_vrfCoordinator",
          "type": "address"
        },
        {
          "internalType": "address",
          "name": "_link",
          "type": "address"
        },
        {
          "internalType": "uint256",
          "name": "_linkFee",
          "type": "uint256"
        },
        {
          "internalType": "bytes32",
          "name": "_keyhash",
          "type": "bytes32"
        }
      ],
      "stateMutability": "nonpayable",
      "type": "constructor"
    },
    {
      "anonymous": false,
      "inputs": [
        {
          "indexed": false,
          "internalType": "bytes32",
          "name": "requestId",
          "type": "bytes32"
        }
      ],
      "name": "RequestedRandomness",
      "type": "event"
    },
    {
      "inputs": [
        {
          "internalType": "uint256",
          "name": "num",
          "type": "uint256"
        },
        {
          "internalType": "uint256",
          "name": "currentDecimals",
          "type": "uint256"
        }
      ],
      "name": "convertToCorrectDecimals",
      "outputs": [
        {
          "internalType": "uint256",
          "name": "",
          "type": "uint256"
        }
      ],
      "stateMutability": "pure",
      "type": "function"
    },
    {
      "inputs": [],
      "name": "enterLottery",
      "outputs": [
        {
          "internalType": "bool",
          "name": "",
          "type": "bool"
        }
      ],
      "stateMutability": "payable",
      "type": "function"
    },
    {
      "inputs": [],
      "name": "getEntranceFee",
      "outputs": [
        {
          "internalType": "uint256",
          "name": "",
          "type": "uint256"
        }
      ],
      "stateMutability": "view",
      "type": "function"
    },
    {
      "inputs": [],
      "name": "getLotteryState",
      "outputs": [
        {
          "internalType": "string",
          "name": "",
          "type": "string"
        }
      ],
      "stateMutability": "view",
      "type": "function"
    },
    {
      "inputs": [],
      "name": "keyhash",
      "outputs": [
        {
          "internalType": "bytes32",
          "name": "",
          "type": "bytes32"
        }
      ],
      "stateMutability": "view",
      "type": "function"
    },
    {
      "inputs": [],
      "name": "linkFee",
      "outputs": [
        {
          "internalType": "uint256",
          "name": "",
          "type": "uint256"
        }
      ],
      "stateMutability": "view",
      "type": "function"
    },
    {
      "inputs": [],
      "name": "maxPlayers",
      "outputs": [
        {
          "internalType": "uint256",
          "name": "",
          "type": "uint256"
        }
      ],
      "stateMutability": "view",
      "type": "function"
    },
    {
      "inputs": [
        {
          "internalType": "uint256",
          "name": "",
          "type": "uint256"
        }
      ],
      "name": "players",
      "outputs": [
        {
          "internalType": "address payable",
          "name": "",
          "type": "address"
        }
      ],
      "stateMutability": "view",
      "type": "function"
    },
    {
      "inputs": [],
      "name": "randomness",
      "outputs": [
        {
          "internalType": "uint256",
          "name": "",
          "type": "uint256"
        }
      ],
      "stateMutability": "view",
      "type": "function"
    },
    {
      "inputs": [
        {
          "internalType": "bytes32",
          "name": "requestId",
          "type": "bytes32"
        },
        {
          "internalType": "uint256",
          "name": "randomness",
          "type": "uint256"
        }
      ],
      "name": "rawFulfillRandomness",
      "outputs": [],
      "stateMutability": "nonpayable",
      "type": "function"
    },
    {
      "inputs": [],
      "name": "totalPlayersJoined",
      "outputs": [
        {
          "internalType": "uint256",
          "name": "",
          "type": "uint256"
        }
      ],
      "stateMutability": "view",
      "type": "function"
    },
    {
      "inputs": [],
      "name": "usdEntryFee",
      "outputs": [
        {
          "internalType": "uint256",
          "name": "",
          "type": "uint256"
        }
      ],
      "stateMutability": "view",
      "type": "function"
    },
    {
      "inputs": [],
      "name": "winner",
      "outputs": [
        {
          "internalType": "address payable",
          "name": "",
          "type": "address"
        }
      ],
      "stateMutability": "view",
      "type": "function"
    }
  ],
  "bytecode": "60c06040523480156200001157600080fd5b50604051620011bc380380620011bc8339810160408190526200003491620001e3565b6001600160a01b0380851660a052831660805260018711620000ac5760405162461bcd60e51b815260206004820152602660248201527f4d6178696d756d20706c61796572732063616e6e6f74206265206c657373207460448201526568616e20322160d01b60648201526084015b60405180910390fd5b600186116200010c5760405162461bcd60e51b815260206004820152602560248201527f456e74727920666565206d7573742062652067726561746572207468616e2031604482015264205553442160d81b6064820152608401620000a3565b620001198660006200015a565b600355600196909655600480546001600160a01b03959095166001600160a81b031990951694909417600160a01b17909355505060075550600855620003db565b600081601210156200019457620001736012836200026a565b6200018090600a62000381565b6200018c908462000396565b9250620001bd565b620001a18260126200026a565b620001ae90600a62000381565b620001ba9084620003b9565b92505b50815b92915050565b80516001600160a01b0381168114620001de57600080fd5b919050565b600080600080600080600060e0888a031215620001ff57600080fd5b87519650602088015195506200021860408901620001c6565b94506200022860608901620001c6565b93506200023860808901620001c6565b925060a0880151915060c0880151905092959891949750929550565b634e487b7160e01b600052601160045260246000fd5b6000828210156200027f576200027f62000254565b500390565b600181815b80851115620002c5578160001904821115620002a957620002a962000254565b80851615620002b757918102915b93841c939080029062000289565b509250929050565b600082620002de57506001620001c0565b81620002ed57506000620001c0565b8160018114620003065760028114620003115762000331565b6001915050620001c0565b60ff84111562000325576200032562000254565b50506001821b620001c0565b5060208310610133831016604e8410600b841016171562000356575081810a620001c0565b62000362838362000284565b806000190482111562000379576200037962000254565b029392505050565b60006200038f8383620002cd565b9392505050565b600082620003b457634e487b7160e01b600052601260045260246000fd5b500490565b6000816000190483118215151615620003d657620003d662000254565b500290565b60805160a051610db46200040860003960008181610485015261087c0152600061084d0152610db46000f3fe6080604052600436106100c25760003560e01c80636b68c03c1161007f578063b86a21b711610059578063b86a21b7146101c1578063c1af5785146101d6578063dfbf53ae146101ee578063f71d96cb1461022657600080fd5b80636b68c03c1461016757806388ab139a1461018957806394985ddd1461019f57600080fd5b806301889611146100c757806309bc33a7146100f0578063110e41c11461010557806336013189146101255780634c2412a21461013b57806369ebe78e14610151575b600080fd5b3480156100d357600080fd5b506100dd60075481565b6040519081526020015b60405180910390f35b3480156100fc57600080fd5b506100dd610246565b34801561011157600080fd5b506100dd610120366004610a3a565b610362565b34801561013157600080fd5b506100dd60065481565b34801561014757600080fd5b506100dd60015481565b34801561015d57600080fd5b506100dd60085481565b34801561017357600080fd5b5061017c6103c0565b6040516100e79190610aa9565b34801561019557600080fd5b506100dd60035481565b3480156101ab57600080fd5b506101bf6101ba366004610a3a565b61047a565b005b3480156101cd57600080fd5b506002546100dd565b6101de610505565b60405190151581526020016100e7565b3480156101fa57600080fd5b5060055461020e906001600160a01b031681565b6040516001600160a01b0390911681526020016100e7565b34801561023257600080fd5b5061020e610241366004610ac3565b610622565b6004805460408051633fabe5a360e21b8152905160009384936001600160a01b03169263feaf968c928183019260a0928290030181865afa15801561028f573d6000803e3d6000fd5b505050506040513d601f19601f820116820180604052508101906102b39190610afb565b505050915050600061033e82600460009054906101000a90046001600160a01b03166001600160a01b031663313ce5676040518163ffffffff1660e01b8152600401602060405180830381865afa158015610312573d6000803e3d6000fd5b505050506040513d601f19601f820116820180604052508101906103369190610b4b565b60ff16610362565b90506000816103506003546000610362565b61035a9190610b9a565b949350505050565b6000816012101561039457610378601283610bae565b61038390600a610ca9565b61038d9084610b9a565b92506103b7565b61039f826012610bae565b6103aa90600a610ca9565b6103b49084610cb5565b92505b50815b92915050565b60606001600454600160a01b900460ff1660028111156103e2576103e2610cd4565b1415610407575060408051808201909152600481526327a822a760e11b602082015290565b6000600454600160a01b900460ff16600281111561042757610427610cd4565b141561044d5750604080518082019091526005815264434c4f534560d81b602082015290565b5060408051808201909152601281527121a0a621aaa620aa24a723afaba4a72722a960711b602082015290565b336001600160a01b037f000000000000000000000000000000000000000000000000000000000000000016146104f75760405162461bcd60e51b815260206004820152601f60248201527f4f6e6c7920565246436f6f7264696e61746f722063616e2066756c66696c6c0060448201526064015b60405180910390fd5b610501828261064c565b5050565b60006001600454600160a01b900460ff16600281111561052757610527610cd4565b146105745760405162461bcd60e51b815260206004820152601c60248201527f4c6f74746572792069732063757272656e746c7920636c6f736564210000000060448201526064016104ee565b61057c610246565b610587346012610362565b10156105c75760405162461bcd60e51b815260206004820152600f60248201526e4e6f7420656e6f756768204554482160881b60448201526064016104ee565b600280546001818101835560008390527f405787fa12a823e0f2b7631cc41b3ba8828b3321ca811111fa75cd3aa3bb5ace90910180546001600160a01b03191633179055549054141561061c5761061c6107e6565b50600190565b6002818154811061063257600080fd5b6000918252602090912001546001600160a01b0316905081565b6002600454600160a01b900460ff16600281111561066c5761066c610cd4565b146106c95760405162461bcd60e51b815260206004820152602760248201527f4c6f74746572795374617465206d7573742062652043414c43554c4154494e476044820152662faba4a72722a960c91b60648201526084016104ee565b6000811161070c5760405162461bcd60e51b815260206004820152601060248201526f1c985b991bdb4b5b9bdd0b599bdd5b9960821b60448201526064016104ee565b60025460009061071c9083610cea565b90506002818154811061073157610731610cfe565b6000918252602082200154600580546001600160a01b0319166001600160a01b039092169182179055604051909147919081818185875af1925050503d8060008114610799576040519150601f19603f3d011682016040523d82523d6000602084013e61079e565b606091505b50506004805460ff60a01b191690555060408051600081526020810191829052516107cb916002916109c0565b5050600655506004805460ff60a01b1916600160a01b179055565b6004805460ff60a01b1916600160a11b17905560085460075460009161080b91610849565b90507fe5f5b44d72d4143c278eb745c4acc0695c4a5bc616be5beecf46abe29661780e8160405161083e91815260200190565b60405180910390a150565b60007f00000000000000000000000000000000000000000000000000000000000000006001600160a01b0316634000aea07f0000000000000000000000000000000000000000000000000000000000000000848660006040516020016108b9929190918252602082015260400190565b6040516020818303038152906040526040518463ffffffff1660e01b81526004016108e693929190610d14565b6020604051808303816000875af1158015610905573d6000803e3d6000fd5b505050506040513d601f19601f820116820180604052508101906109299190610d44565b5060008381526020818152604080832054815180840188905280830185905230606082015260808082018390528351808303909101815260a090910190925281519183019190912086845292909152610983906001610d66565b600085815260208181526040918290209290925580518083018790528082018490528151808203830181526060909101909152805191012061035a565b828054828255906000526020600020908101928215610a15579160200282015b82811115610a1557825182546001600160a01b0319166001600160a01b039091161782556020909201916001909101906109e0565b50610a21929150610a25565b5090565b5b80821115610a215760008155600101610a26565b60008060408385031215610a4d57600080fd5b50508035926020909101359150565b6000815180845260005b81811015610a8257602081850181015186830182015201610a66565b81811115610a94576000602083870101525b50601f01601f19169290920160200192915050565b602081526000610abc6020830184610a5c565b9392505050565b600060208284031215610ad557600080fd5b5035919050565b805169ffffffffffffffffffff81168114610af657600080fd5b919050565b600080600080600060a08688031215610b1357600080fd5b610b1c86610adc565b9450602086015193506040860151925060608601519150610b3f60808701610adc565b90509295509295909350565b600060208284031215610b5d57600080fd5b815160ff81168114610abc57600080fd5b634e487b7160e01b600052601260045260246000fd5b634e487b7160e01b600052601160045260246000fd5b600082610ba957610ba9610b6e565b500490565b600082821015610bc057610bc0610b84565b500390565b600181815b80851115610c00578160001904821115610be657610be6610b84565b80851615610bf357918102915b93841c9390800290610bca565b509250929050565b600082610c17575060016103ba565b81610c24575060006103ba565b8160018114610c3a5760028114610c4457610c60565b60019150506103ba565b60ff841115610c5557610c55610b84565b50506001821b6103ba565b5060208310610133831016604e8410600b8410161715610c83575081810a6103ba565b610c8d8383610bc5565b8060001904821115610ca157610ca1610b84565b029392505050565b6000610abc8383610c08565b6000816000190483118215151615610ccf57610ccf610b84565b500290565b634e487b7160e01b600052602160045260246000fd5b600082610cf957610cf9610b6e565b500690565b634e487b7160e01b600052603260045260246000fd5b60018060a01b0384168152826020820152606060408201526000610d3b6060830184610a5c565b95945050505050565b600060208284031215610d5657600080fd5b81518015158114610abc57600080fd5b60008219821115610d7957610d79610b84565b50019056fea26469706673582212206d354e4d144832810a3709a1272c0eca412ecfa43d2a380995b186750e42394964736f6c634300080b0033",
  "bytecodeSha1": "03be8c0948e7cce435e72fb67b348cbad482cce6",
  "compiler": {
    "evm_version": "istanbul",
    "optimizer": {
      "enabled": true,
      "runs": 200
    },
    "version": "0.8.11+commit.d7f03943"
  },
  "contractName": "Lottery",
  "language": "Solidity",
  "natspec": {
    "kind": "dev",
    "methods": {},
    "version": 1
  },
  "opcodes": "PUSH1 0x80 PUSH1 0x40 MSTORE PUSH1 0x4 CALLDATASIZE LT PUSH2 0xC2 JUMPI PUSH1 0x0 CALLDATALOAD PUSH1 0xE0 SHR DUP1 PUSH4 0x6B68C03C GT PUSH2 0x7F JUMPI DUP1 PUSH4 0xB86A21B7 GT PUSH2 0x59 JUMPI DUP1 PUSH4 0xB86A21B7 EQ PUSH2 0x1C1 JUMPI DUP1 PUSH4 0xC1AF5785 EQ PUSH2 0x1D6 JUMPI DUP1 PUSH4 0xDFBF53AE EQ PUSH2 0x1EE JUMPI DUP1 PUSH4 0xF71D96CB EQ PUSH2 0x226 JUMPI PUSH1 0x0 DUP1 REVERT JUMPDEST DUP1 PUSH4 0x6B68C03C EQ PUSH2 0x167 JUMPI DUP1 PUSH4 0x88AB139A EQ PUSH2 0x189 JUMPI DUP1 PUSH4 0x94985DDD EQ PUSH2 0x19F JUMPI PUSH1 0x0 DUP1 REVERT JUMPDEST DUP1 PUSH4 0x1889611 EQ PUSH2 0xC7 JUMPI DUP1 PUSH4 0x9BC33A7 EQ PUSH2 0xF0 JUMPI DUP1 PUSH4 0x110E41C1 EQ PUSH2 0x105 JUMPI DUP1 PUSH4 0x36013189 EQ PUSH2 0x125 JUMPI DUP1 PUSH4 0x4C2412A2 EQ PUSH2 0x13B JUMPI DUP1 PUSH4 0x69EBE78E EQ PUSH2 0x151 JUMPI JUMPDEST PUSH1 0x0 DUP1 REVERT JUMPDEST CALLVALUE DUP1 ISZERO PUSH2 0xD3 JUMPI PUSH1 0x0 DUP1 REVERT JUMPDEST POP PUSH2 0xDD PUSH1 0x7 SLOAD DUP2 JUMP JUMPDEST PUSH1 0x40 MLOAD SWAP1 DUP2 MSTORE PUSH1 0x20 ADD JUMPDEST PUSH1 0x40 MLOAD DUP1 SWAP2 SUB SWAP1 RETURN JUMPDEST CALLVALUE DUP1 ISZERO PUSH2 0xFC JUMPI PUSH1 0x0 DUP1 REVERT JUMPDEST POP PUSH2 0xDD PUSH2 0x246 JUMP JUMPDEST CALLVALUE DUP1 ISZERO PUSH2 0x111 JUMPI PUSH1 0x0 DUP1 REVERT JUMPDEST POP PUSH2 0xDD PUSH2 0x120 CALLDATASIZE PUSH1 0x4 PUSH2 0xA3A JUMP JUMPDEST PUSH2 0x362 JUMP JUMPDEST CALLVALUE DUP1 ISZERO PUSH2 0x131 JUMPI PUSH1 0x0 DUP1 REVERT JUMPDEST POP PUSH2 0xDD PUSH1 0x6 SLOAD DUP2 JUMP JUMPDEST CALLVALUE DUP1 ISZERO PUSH2 0x147 JUMPI PUSH1 0x0 DUP1 REVERT JUMPDEST POP PUSH2 0xDD PUSH1 0x1 SLOAD DUP2 JUMP JUMPDEST CALLVALUE DUP1 ISZERO PUSH2 0x15D JUMPI PUSH1 0x0 DUP1 REVERT JUMPDEST POP PUSH2 0xDD PUSH1 0x8 SLOAD DUP2 JUMP JUMPDEST CALLVALUE DUP1 ISZERO PUSH2 0x173 JUMPI PUSH1 0x0 DUP1 REVERT JUMPDEST POP PUSH2 0x17C PUSH2 0x3C0 JUMP JUMPDEST PUSH1 0x40 MLOAD PUSH2 0xE7 SWAP2 SWAP1 PUSH2 0xAA9 JUMP JUMPDEST CALLVALUE DUP1 ISZERO PUSH2 0x195 JUMPI PUSH1 0x0 DUP1 REVERT JUMPDEST POP PUSH2 0xDD PUSH1 0x3 SLOAD DUP2 JUMP JUMPDEST CALLVALUE DUP1 ISZERO PUSH2 0x1AB JUMPI PUSH1 0x0 DUP1 REVERT JUMPDEST POP PUSH2 0x1BF PUSH2 0x1BA CALLDATASIZE PUSH1 0x4 PUSH2 0xA3A JUMP JUMPDEST PUSH2 0x47A JUMP JUMPDEST STOP JUMPDEST CALLVALUE DUP1 ISZERO PUSH2 0x1CD JUMPI PUSH1 0x0 DUP1 REVERT JUMPDEST POP PUSH1 0x2 SLOAD PUSH2 0xDD JUMP JUMPDEST PUSH2 0x1DE PUSH2 0x505 JUMP JUMPDEST PUSH1 0x40 MLOAD SWAP1 ISZERO ISZERO DUP2 MSTORE PUSH1 0x20 ADD PUSH2 0xE7 JUMP JUMPDEST CALLVALUE DUP1 ISZERO PUSH2 0x1FA JUMPI PUSH1 0x0 DUP1 REVERT JUMPDEST POP PUSH1 0x5 SLOAD PUSH2 0x20E SWAP1 PUSH1 0x1 PUSH1 0x1 PUSH1 0xA0 SHL SUB AND DUP2 JUMP JUMPDEST PUSH1 0x40 MLOAD PUSH1 0x1 PUSH1 0x1 PUSH1 0xA0 SHL SUB SWAP1 SWAP2 AND DUP2 MSTORE PUSH1 0x20 ADD PUSH2 0xE7 JUMP JUMPDEST CALLVALUE DUP1 ISZERO PUSH2 0x232 JUMPI PUSH1 0x0 DUP1 REVERT JUMPDEST POP PUSH2 0x20E PUSH2 0x241 CALLDATASIZE PUSH1 0x4 PUSH2 0xAC3 JUMP JUMPDEST PUSH2 0x622 JUMP JUMPDEST PUSH1 0x4 DUP1 SLOAD PUSH1 0x40 DUP1 MLOAD PUSH4 0x3FABE5A3 PUSH1 0xE2 SHL DUP2 MSTORE SWAP1 MLOAD PUSH1 0x0 SWAP4 DUP5 SWAP4 PUSH1 0x1 PUSH1 0x1 PUSH1 0xA0 SHL SUB AND SWAP3 PUSH4 0xFEAF968C SWAP3 DUP2 DUP4 ADD SWAP3 PUSH1 0xA0 SWAP3 DUP3 SWAP1 SUB ADD DUP2 DUP7 GAS STATICCALL ISZERO DUP1 ISZERO PUSH2 0x28F JUMPI RETURNDATASIZE PUSH1 0x0 DUP1 RETURNDATACOPY RETURNDATASIZE PUSH1 0x0 REVERT JUMPDEST POP POP POP POP PUSH1 0x40 MLOAD RETURNDATASIZE PUSH1 0x1F NOT PUSH1 0x1F DUP3 ADD AND DUP3 ADD DUP1 PUSH1 0x40 MSTORE POP DUP2 ADD SWAP1 PUSH2 0x2B3 SWAP2 SWAP1 PUSH2 0xAFB JUMP JUMPDEST POP POP POP SWAP2 POP POP PUSH1 0x0 PUSH2 0x33E DUP3 PUSH1 0x4 PUSH1 0x0 SWAP1 SLOAD SWAP1 PUSH2 0x100 EXP SWAP1 DIV PUSH1 0x1 PUSH1 0x1 PUSH1 0xA0 SHL SUB AND PUSH1 0x1 PUSH1 0x1 PUSH1 0xA0 SHL SUB AND PUSH4 0x313CE567 PUSH1 0x40 MLOAD DUP2 PUSH4 0xFFFFFFFF AND PUSH1 0xE0 SHL DUP2 MSTORE PUSH1 0x4 ADD PUSH1 0x20 PUSH1 0x40 MLOAD DUP1 DUP4 SUB DUP2 DUP7 GAS STATICCALL ISZERO DUP1 ISZERO PUSH2 0x312 JUMPI RETURNDATASIZE PUSH1 0x0 DUP1 RETURNDATACOPY RETURNDATASIZE PUSH1 0x0 REVERT JUMPDEST POP POP POP POP PUSH1 0x40 MLOAD RETURNDATASIZE PUSH1 0x1F NOT PUSH1 0x1F DUP3 ADD AND DUP3 ADD DUP1 PUSH1 0x40 MSTORE POP DUP2 ADD SWAP1 PUSH2 0x336 SWAP2 SWAP1 PUSH2 0xB4B JUMP JUMPDEST PUSH1 0xFF AND PUSH2 0x362 JUMP JUMPDEST SWAP1 POP PUSH1 0x0 DUP2 PUSH2 0x350 PUSH1 0x3 SLOAD PUSH1 0x0 PUSH2 0x362 JUMP JUMPDEST PUSH2 0x35A SWAP2 SWAP1 PUSH2 0xB9A JUMP JUMPDEST SWAP5 SWAP4 POP POP POP POP JUMP JUMPDEST PUSH1 0x0 DUP2 PUSH1 0x12 LT ISZERO PUSH2 0x394 JUMPI PUSH2 0x378 PUSH1 0x12 DUP4 PUSH2 0xBAE JUMP JUMPDEST PUSH2 0x383 SWAP1 PUSH1 0xA PUSH2 0xCA9 JUMP JUMPDEST PUSH2 0x38D SWAP1 DUP5 PUSH2 0xB9A JUMP JUMPDEST SWAP3 POP PUSH2 0x3B7 JUMP JUMPDEST PUSH2 0x39F DUP3 PUSH1 0x12 PUSH2 0xBAE JUMP JUMPDEST PUSH2 0x3AA SWAP1 PUSH1 0xA PUSH2 0xCA9 JUMP JUMPDEST PUSH2 0x3B4 SWAP1 DUP5 PUSH2 0xCB5 JUMP JUMPDEST SWAP3 POP JUMPDEST POP DUP2 JUMPDEST SWAP3 SWAP2 POP POP JUMP JUMPDEST PUSH1 0x60 PUSH1 0x1 PUSH1 0x4 SLOAD PUSH1 0x1 PUSH1 0xA0 SHL SWAP1 DIV PUSH1 0xFF AND PUSH1 0x2 DUP2 GT ISZERO PUSH2 0x3E2 JUMPI PUSH2 0x3E2 PUSH2 0xCD4 JUMP JUMPDEST EQ ISZERO PUSH2 0x407 JUMPI POP PUSH1 0x40 DUP1 MLOAD DUP1 DUP3 ADD SWAP1 SWAP2 MSTORE PUSH1 0x4 DUP2 MSTORE PUSH4 0x27A822A7 PUSH1 0xE1 SHL PUSH1 0x20 DUP3 ADD MSTORE SWAP1 JUMP JUMPDEST PUSH1 0x0 PUSH1 0x4 SLOAD PUSH1 0x1 PUSH1 0xA0 SHL SWAP1 DIV PUSH1 0xFF AND PUSH1 0x2 DUP2 GT ISZERO PUSH2 0x427 JUMPI PUSH2 0x427 PUSH2 0xCD4 JUMP JUMPDEST EQ ISZERO PUSH2 0x44D JUMPI POP PUSH1 0x40 DUP1 MLOAD DUP1 DUP3 ADD SWAP1 SWAP2 MSTORE PUSH1 0x5 DUP2 MSTORE PUSH5 0x434C4F5345 PUSH1 0xD8 SHL PUSH1 0x20 DUP3 ADD MSTORE SWAP1 JUMP JUMPDEST POP PUSH1 0x40 DUP1 MLOAD DUP1 DUP3 ADD SWAP1 SWAP2 MSTORE PUSH1 0x12 DUP2 MSTORE PUSH18 0x21A0A621AAA620AA24A723AFABA4A72722A9 PUSH1 0x71 SHL PUSH1 0x20 DUP3 ADD MSTORE SWAP1 JUMP JUMPDEST CALLER PUSH1 0x1 PUSH1 0x1 PUSH1 0xA0 SHL SUB PUSH32 0x0 AND EQ PUSH2 0x4F7 JUMPI PUSH1 0x40 MLOAD PUSH3 0x461BCD PUSH1 0xE5 SHL DUP2 MSTORE PUSH1 0x20 PUSH1 0x4 DUP3 ADD MSTORE PUSH1 0x1F PUSH1 0x24 DUP3 ADD MSTORE PUSH32 0x4F6E6C7920565246436F6F7264696E61746F722063616E2066756C66696C6C00 PUSH1 0x44 DUP3 ADD MSTORE PUSH1 0x64 ADD JUMPDEST PUSH1 0x40 MLOAD DUP1 SWAP2 SUB SWAP1 REVERT JUMPDEST PUSH2 0x501 DUP3 DUP3 PUSH2 0x64C JUMP JUMPDEST POP POP JUMP JUMPDEST PUSH1 0x0 PUSH1 0x1 PUSH1 0x4 SLOAD PUSH1 0x1 PUSH1 0xA0 SHL SWAP1 DIV PUSH1 0xFF AND PUSH1 0x2 DUP2 GT ISZERO PUSH2 0x527 JUMPI PUSH2 0x527 PUSH2 0xCD4 JUMP JUMPDEST EQ PUSH2 0x574 JUMPI PUSH1 0x40 MLOAD PUSH3 0x461BCD PUSH1 0xE5 SHL DUP2 MSTORE PUSH1 0x20 PUSH1 0x4 DUP3 ADD MSTORE PUSH1 0x1C PUSH1 0x24 DUP3 ADD MSTORE PUSH32 0x4C6F74746572792069732063757272656E746C7920636C6F7365642100000000 PUSH1 0x44 DUP3 ADD MSTORE PUSH1 0x64 ADD PUSH2 0x4EE JUMP JUMPDEST PUSH2 0x57C PUSH2 0x246 JUMP JUMPDEST PUSH2 0x587 CALLVALUE PUSH1 0x12 PUSH2 0x362 JUMP JUMPDEST LT ISZERO PUSH2 0x5C7 JUMPI PUSH1 0x40 MLOAD PUSH3 0x461BCD PUSH1 0xE5 SHL DUP2 MSTORE PUSH1 0x20 PUSH1 0x4 DUP3 ADD MSTORE PUSH1 0xF PUSH1 0x24 DUP3 ADD MSTORE PUSH15 0x4E6F7420656E6F7567682045544821 PUSH1 0x88 SHL PUSH1 0x44 DUP3 ADD MSTORE PUSH1 0x64 ADD PUSH2 0x4EE JUMP JUMPDEST PUSH1 0x2 DUP1 SLOAD PUSH1 0x1 DUP2 DUP2 ADD DUP4 SSTORE PUSH1 0x0 DUP4 SWAP1 MSTORE PUSH32 0x405787FA12A823E0F2B7631CC41B3BA8828B3321CA811111FA75CD3AA3BB5ACE SWAP1 SWAP2 ADD DUP1 SLOAD PUSH1 0x1 PUSH1 0x1 PUSH1 0xA0 SHL SUB NOT AND CALLER OR SWAP1 SSTORE SLOAD SWAP1 SLOAD EQ ISZERO PUSH2 0x61C JUMPI PUSH2 0x61C PUSH2 0x7E6 JUMP JUMPDEST POP PUSH1 0x1 SWAP1 JUMP JUMPDEST PUSH1 0x2 DUP2 DUP2 SLOAD DUP2 LT PUSH2 0x632 JUMPI PUSH1 0x0 DUP1 REVERT JUMPDEST PUSH1 0x0 SWAP2 DUP3 MSTORE PUSH1 0x20 SWAP1 SWAP2 KECCAK256 ADD SLOAD PUSH1 0x1 PUSH1 0x1 PUSH1 0xA0 SHL SUB AND SWAP1 POP DUP2 JUMP JUMPDEST PUSH1 0x2 PUSH1 0x4 SLOAD PUSH1 0x1 PUSH1 0xA0 SHL SWAP1 DIV PUSH1 0xFF AND PUSH1 0x2 DUP2 GT ISZERO PUSH2 0x66C JUMPI PUSH2 0x66C PUSH2 0xCD4 JUMP JUMPDEST EQ PUSH2 0x6C9 JUMPI PUSH1 0x40 MLOAD PUSH3 0x461BCD PUSH1 0xE5 SHL DUP2 MSTORE PUSH1 0x20 PUSH1 0x4 DUP3 ADD MSTORE PUSH1 0x27 PUSH1 0x24 DUP3 ADD MSTORE PUSH32 0x4C6F74746572795374617465206D7573742062652043414C43554C4154494E47 PUSH1 0x44 DUP3 ADD MSTORE PUSH7 0x2FABA4A72722A9 PUSH1 0xC9 SHL PUSH1 0x64 DUP3 ADD MSTORE PUSH1 0x84 ADD PUSH2 0x4EE JUMP JUMPDEST PUSH1 0x0 DUP2 GT PUSH2 0x70C JUMPI PUSH1 0x40 MLOAD PUSH3 0x461BCD PUSH1 0xE5 SHL DUP2 MSTORE PUSH1 0x20 PUSH1 0x4 DUP3 ADD MSTORE PUSH1 0x10 PUSH1 0x24 DUP3 ADD MSTORE PUSH16 0x1C985B991BDB4B5B9BDD0B599BDD5B99 PUSH1 0x82 SHL PUSH1 0x44 DUP3 ADD MSTORE PUSH1 0x64 ADD PUSH2 0x4EE JUMP JUMPDEST PUSH1 0x2 SLOAD PUSH1 0x0 SWAP1 PUSH2 0x71C SWAP1 DUP4 PUSH2 0xCEA JUMP JUMPDEST SWAP1 POP PUSH1 0x2 DUP2 DUP2 SLOAD DUP2 LT PUSH2 0x731 JUMPI PUSH2 0x731 PUSH2 0xCFE JUMP JUMPDEST PUSH1 0x0 SWAP2 DUP3 MSTORE PUSH1 0x20 DUP3 KECCAK256 ADD SLOAD PUSH1 0x5 DUP1 SLOAD PUSH1 0x1 PUSH1 0x1 PUSH1 0xA0 SHL SUB NOT AND PUSH1 0x1 PUSH1 0x1 PUSH1 0xA0 SHL SUB SWAP1 SWAP3 AND SWAP2 DUP3 OR SWAP1 SSTORE PUSH1 0x40 MLOAD SWAP1 SWAP2 SELFBALANCE SWAP2 SWAP1 DUP2 DUP2 DUP2 DUP6 DUP8 GAS CALL SWAP3 POP POP POP RETURNDATASIZE DUP1 PUSH1 0x0 DUP2 EQ PUSH2 0x799 JUMPI PUSH1 0x40 MLOAD SWAP2 POP PUSH1 0x1F NOT PUSH1 0x3F RETURNDATASIZE ADD AND DUP3 ADD PUSH1 0x40 MSTORE RETURNDATASIZE DUP3 MSTORE RETURNDATASIZE PUSH1 0x0 PUSH1 0x20 DUP5 ADD RETURNDATACOPY PUSH2 0x79E JUMP JUMPDEST PUSH1 0x60 SWAP2 POP JUMPDEST POP POP PUSH1 0x4 DUP1 SLOAD PUSH1 0xFF PUSH1 0xA0 SHL NOT AND SWAP1 SSTORE POP PUSH1 0x40 DUP1 MLOAD PUSH1 0x0 DUP2 MSTORE PUSH1 0x20 DUP2 ADD SWAP2 DUP3 SWAP1 MSTORE MLOAD PUSH2 0x7CB SWAP2 PUSH1 0x2 SWAP2 PUSH2 0x9C0 JUMP JUMPDEST POP POP PUSH1 0x6 SSTORE POP PUSH1 0x4 DUP1 SLOAD PUSH1 0xFF PUSH1 0xA0 SHL NOT AND PUSH1 0x1 PUSH1 0xA0 SHL OR SWAP1 SSTORE JUMP JUMPDEST PUSH1 0x4 DUP1 SLOAD PUSH1 0xFF PUSH1 0xA0 SHL NOT AND PUSH1 0x1 PUSH1 0xA1 SHL OR SWAP1 SSTORE PUSH1 0x8 SLOAD PUSH1 0x7 SLOAD PUSH1 0x0 SWAP2 PUSH2 0x80B SWAP2 PUSH2 0x849 JUMP JUMPDEST SWAP1 POP PUSH32 0xE5F5B44D72D4143C278EB745C4ACC0695C4A5BC616BE5BEECF46ABE29661780E DUP2 PUSH1 0x40 MLOAD PUSH2 0x83E SWAP2 DUP2 MSTORE PUSH1 0x20 ADD SWAP1 JUMP JUMPDEST PUSH1 0x40 MLOAD DUP1 SWAP2 SUB SWAP1 LOG1 POP JUMP JUMPDEST PUSH1 0x0 PUSH32 0x0 PUSH1 0x1 PUSH1 0x1 PUSH1 0xA0 SHL SUB AND PUSH4 0x4000AEA0 PUSH32 0x0 DUP5 DUP7 PUSH1 0x0 PUSH1 0x40 MLOAD PUSH1 0x20 ADD PUSH2 0x8B9 SWAP3 SWAP2 SWAP1 SWAP2 DUP3 MSTORE PUSH1 0x20 DUP3 ADD MSTORE PUSH1 0x40 ADD SWAP1 JUMP JUMPDEST PUSH1 0x40 MLOAD PUSH1 0x20 DUP2 DUP4 SUB SUB DUP2 MSTORE SWAP1 PUSH1 0x40 MSTORE PUSH1 0x40 MLOAD DUP5 PUSH4 0xFFFFFFFF AND PUSH1 0xE0 SHL DUP2 MSTORE PUSH1 0x4 ADD PUSH2 0x8E6 SWAP4 SWAP3 SWAP2 SWAP1 PUSH2 0xD14 JUMP JUMPDEST PUSH1 0x20 PUSH1 0x40 MLOAD DUP1 DUP4 SUB DUP2 PUSH1 0x0 DUP8 GAS CALL ISZERO DUP1 ISZERO PUSH2 0x905 JUMPI RETURNDATASIZE PUSH1 0x0 DUP1 RETURNDATACOPY RETURNDATASIZE PUSH1 0x0 REVERT JUMPDEST POP POP POP POP PUSH1 0x40 MLOAD RETURNDATASIZE PUSH1 0x1F NOT PUSH1 0x1F DUP3 ADD AND DUP3 ADD DUP1 PUSH1 0x40 MSTORE POP DUP2 ADD SWAP1 PUSH2 0x929 SWAP2 SWAP1 PUSH2 0xD44 JUMP JUMPDEST POP PUSH1 0x0 DUP4 DUP2 MSTORE PUSH1 0x20 DUP2 DUP2 MSTORE PUSH1 0x40 DUP1 DUP4 KECCAK256 SLOAD DUP2 MLOAD DUP1 DUP5 ADD DUP9 SWAP1 MSTORE DUP1 DUP4 ADD DUP6 SWAP1 MSTORE ADDRESS PUSH1 0x60 DUP3 ADD MSTORE PUSH1 0x80 DUP1 DUP3 ADD DUP4 SWAP1 MSTORE DUP4 MLOAD DUP1 DUP4 SUB SWAP1 SWAP2 ADD DUP2 MSTORE PUSH1 0xA0 SWAP1 SWAP2 ADD SWAP1 SWAP3 MSTORE DUP2 MLOAD SWAP2 DUP4 ADD SWAP2 SWAP1 SWAP2 KECCAK256 DUP7 DUP5 MSTORE SWAP3 SWAP1 SWAP2 MSTORE PUSH2 0x983 SWAP1 PUSH1 0x1 PUSH2 0xD66 JUMP JUMPDEST PUSH1 0x0 DUP6 DUP2 MSTORE PUSH1 0x20 DUP2 DUP2 MSTORE PUSH1 0x40 SWAP2 DUP3 SWAP1 KECCAK256 SWAP3 SWAP1 SWAP3 SSTORE DUP1 MLOAD DUP1 DUP4 ADD DUP8 SWAP1 MSTORE DUP1 DUP3 ADD DUP5 SWAP1 MSTORE DUP2 MLOAD DUP1 DUP3 SUB DUP4 ADD DUP2 MSTORE PUSH1 0x60 SWAP1 SWAP2 ADD SWAP1 SWAP2 MSTORE DUP1 MLOAD SWAP2 ADD KECCAK256 PUSH2 0x35A JUMP JUMPDEST DUP3 DUP1 SLOAD DUP3 DUP3 SSTORE SWAP1 PUSH1 0x0 MSTORE PUSH1 0x20 PUSH1 0x0 KECCAK256 SWAP1 DUP2 ADD SWAP3 DUP3 ISZERO PUSH2 0xA15 JUMPI SWAP2 PUSH1 0x20 MUL DUP3 ADD JUMPDEST DUP3 DUP2 GT ISZERO PUSH2 0xA15 JUMPI DUP3 MLOAD DUP3 SLOAD PUSH1 0x1 PUSH1 0x1 PUSH1 0xA0 SHL SUB NOT AND PUSH1 0x1 PUSH1 0x1 PUSH1 0xA0 SHL SUB SWAP1 SWAP2 AND OR DUP3 SSTORE PUSH1 0x20 SWAP1 SWAP3 ADD SWAP2 PUSH1 0x1 SWAP1 SWAP2 ADD SWAP1 PUSH2 0x9E0 JUMP JUMPDEST POP PUSH2 0xA21 SWAP3 SWAP2 POP PUSH2 0xA25 JUMP JUMPDEST POP SWAP1 JUMP JUMPDEST JUMPDEST DUP1 DUP3 GT ISZERO PUSH2 0xA21 JUMPI PUSH1 0x0 DUP2 SSTORE PUSH1 0x1 ADD PUSH2 0xA26 JUMP JUMPDEST PUSH1 0x0 DUP1 PUSH1 0x40 DUP4 DUP6 SUB SLT ISZERO PUSH2 0xA4D JUMPI PUSH1 0x0 DUP1 REVERT JUMPDEST POP POP DUP1 CALLDATALOAD SWAP3 PUSH1 0x20 SWAP1 SWAP2 ADD CALLDATALOAD SWAP2 POP JUMP JUMPDEST PUSH1 0x0 DUP2 MLOAD DUP1 DUP5 MSTORE PUSH1 0x0 JUMPDEST DUP2 DUP2 LT ISZERO PUSH2 0xA82 JUMPI PUSH1 0x20 DUP2 DUP6 ADD DUP2 ADD MLOAD DUP7 DUP4 ADD DUP3 ADD MSTORE ADD PUSH2 0xA66 JUMP JUMPDEST DUP2 DUP2 GT ISZERO PUSH2 0xA94 JUMPI PUSH1 0x0 PUSH1 0x20 DUP4 DUP8 ADD ADD MSTORE JUMPDEST POP PUSH1 0x1F ADD PUSH1 0x1F NOT AND SWAP3 SWAP1 SWAP3 ADD PUSH1 0x20 ADD SWAP3 SWAP2 POP POP JUMP JUMPDEST PUSH1 0x20 DUP2 MSTORE PUSH1 0x0 PUSH2 0xABC PUSH1 0x20 DUP4 ADD DUP5 PUSH2 0xA5C JUMP JUMPDEST SWAP4 SWAP3 POP POP POP JUMP JUMPDEST PUSH1 0x0 PUSH1 0x20 DUP3 DUP5 SUB SLT ISZERO PUSH2 0xAD5 JUMPI PUSH1 0x0 DUP1 REVERT JUMPDEST POP CALLDATALOAD SWAP2 SWAP1 POP JUMP JUMPDEST DUP1 MLOAD PUSH10 0xFFFFFFFFFFFFFFFFFFFF DUP2 AND DUP2 EQ PUSH2 0xAF6 JUMPI PUSH1 0x0 DUP1 REVERT JUMPDEST SWAP2 SWAP1 POP JUMP JUMPDEST PUSH1 0x0 DUP1 PUSH1 0x0 DUP1 PUSH1 0x0 PUSH1 0xA0 DUP7 DUP9 SUB SLT ISZERO PUSH2 0xB13 JUMPI PUSH1 0x0 DUP1 REVERT JUMPDEST PUSH2 0xB1C DUP7 PUSH2 0xADC JUMP JUMPDEST SWAP5 POP PUSH1 0x20 DUP7 ADD MLOAD SWAP4 POP PUSH1 0x40 DUP7 ADD MLOAD SWAP3 POP PUSH1 0x60 DUP7 ADD MLOAD SWAP2 POP PUSH2 0xB3F PUSH1 0x80 DUP8 ADD PUSH2 0xADC JUMP JUMPDEST SWAP1 POP SWAP3 SWAP6 POP SWAP3 SWAP6 SWAP1 SWAP4 POP JUMP JUMPDEST PUSH1 0x0 PUSH1 0x20 DUP3 DUP5 SUB SLT ISZERO PUSH2 0xB5D JUMPI PUSH1 0x0 DUP1 REVERT JUMPDEST DUP2 MLOAD PUSH1 0xFF DUP2 AND DUP2 EQ PUSH2 0xABC JUMPI PUSH1 0x0 DUP1 REVERT JUMPDEST PUSH4 0x4E487B71 PUSH1 0xE0 SHL PUSH1 0x0 MSTORE PUSH1 0x12 PUSH1 0x4 MSTORE PUSH1 0x24 PUSH1 0x0 REVERT JUMPDEST PUSH4 0x4E487B71 PUSH1 0xE0 SHL PUSH1 0x0 MSTORE PUSH1 0x11 PUSH1 0x4 MSTORE PUSH1 0x24 PUSH1 0x0 REVERT JUMPDEST PUSH1 0x0 DUP3 PUSH2 0xBA9 JUMPI PUSH2 0xBA9 PUSH2 0xB6E JUMP JUMPDEST POP DIV SWAP1 JUMP JUMPDEST PUSH1 0x0 DUP3 DUP3 LT ISZERO PUSH2 0xBC0 JUMPI PUSH2 0xBC0 PUSH2 0xB84 JUMP JUMPDEST POP SUB SWAP1 JUMP JUMPDEST PUSH1 0x1 DUP2 DUP2 JUMPDEST DUP1 DUP6 GT ISZERO PUSH2 0xC00 JUMPI DUP2 PUSH1 0x0 NOT DIV DUP3 GT ISZERO PUSH2 0xBE6 JUMPI PUSH2 0xBE6 PUSH2 0xB84 JUMP JUMPDEST DUP1 DUP6 AND ISZERO PUSH2 0xBF3 JUMPI SWAP2 DUP2 MUL SWAP2 JUMPDEST SWAP4 DUP5 SHR SWAP4 SWAP1 DUP1 MUL SWAP1 PUSH2 0xBCA JUMP JUMPDEST POP SWAP3 POP SWAP3 SWAP1 POP JUMP JUMPDEST PUSH1 0x0 DUP3 PUSH2 0xC17 JUMPI POP PUSH1 0x1 PUSH2 0x3BA JUMP JUMPDEST DUP2 PUSH2 0xC24 JUMPI POP PUSH1 0x0 PUSH2 0x3BA JUMP JUMPDEST DUP2 PUSH1 0x1 DUP2 EQ PUSH2 0xC3A JUMPI PUSH1 0x2 DUP2 EQ PUSH2 0xC44 JUMPI PUSH2 0xC60 JUMP JUMPDEST PUSH1 0x1 SWAP2 POP POP PUSH2 0x3BA JUMP JUMPDEST PUSH1 0xFF DUP5 GT ISZERO PUSH2 0xC55 JUMPI PUSH2 0xC55 PUSH2 0xB84 JUMP JUMPDEST POP POP PUSH1 0x1 DUP3 SHL PUSH2 0x3BA JUMP JUMPDEST POP PUSH1 0x20 DUP4 LT PUSH2 0x133 DUP4 LT AND PUSH1 0x4E DUP5 LT PUSH1 0xB DUP5 LT AND OR ISZERO PUSH2 0xC83 JUMPI POP DUP2 DUP2 EXP PUSH2 0x3BA JUMP JUMPDEST PUSH2 0xC8D DUP4 DUP4 PUSH2 0xBC5 JUMP JUMPDEST DUP1 PUSH1 0x0 NOT DIV DUP3 GT ISZERO PUSH2 0xCA1 JUMPI PUSH2 0xCA1 PUSH2 0xB84 JUMP JUMPDEST MUL SWAP4 SWAP3 POP POP POP JUMP JUMPDEST PUSH1 0x0 PUSH2 0xABC DUP4 DUP4 PUSH2 0xC08 JUMP JUMPDEST PUSH1 0x0 DUP2 PUSH1 0x0 NOT DIV DUP4 GT DUP3 ISZERO ISZERO AND ISZERO PUSH2 0xCCF JUMPI PUSH2 0xCCF PUSH2 0xB84 JUMP JUMPDEST POP MUL SWAP1 JUMP JUMPDEST PUSH4 0x4E487B71 PUSH1 0xE0 SHL PUSH1 0x0 MSTORE PUSH1 0x21 PUSH1 0x4 MSTORE PUSH1 0x24 PUSH1 0x0 REVERT JUMPDEST PUSH1 0x0 DUP3 PUSH2 0xCF9 JUMPI PUSH2 0xCF9 PUSH2 0xB6E JUMP JUMPDEST POP MOD SWAP1 JUMP JUMPDEST PUSH4 0x4E487B71 PUSH1 0xE0 SHL PUSH1 0x0 MSTORE PUSH1 0x32 PUSH1 0x4 MSTORE PUSH1 0x24 PUSH1 0x0 REVERT JUMPDEST PUSH1 0x1 DUP1 PUSH1 0xA0 SHL SUB DUP5 AND DUP2 MSTORE DUP3 PUSH1 0x20 DUP3 ADD MSTORE PUSH1 0x60 PUSH1 0x40 DUP3 ADD MSTORE PUSH1 0x0 PUSH2 0xD3B PUSH1 0x60 DUP4 ADD DUP5 PUSH2 0xA5C JUMP JUMPDEST SWAP6 SWAP5 POP POP POP POP POP JUMP JUMPDEST PUSH1 0x0 PUSH1 0x20 DUP3 DUP5 SUB SLT ISZERO PUSH2 0xD56 JUMPI PUSH1 0x0 DUP1 REVERT JUMPDEST DUP2 MLOAD DUP1 ISZERO ISZERO DUP2 EQ PUSH2 0xABC JUMPI PUSH1 0x0 DUP1 REVERT JUMPDEST PUSH1 0x0 DUP3 NOT DUP3 GT ISZERO PUSH2 0xD79 JUMPI PUSH2 0xD79 PUSH2 0xB84 JUMP JUMPDEST POP ADD SWAP1 JUMP INVALID LOG2 PUSH5 0x6970667358 0x22 SLT KECCAK256 PUSH14 0x354E4D144832810A3709A1272C0E 0xCA COINBASE 0x2E 0xCF LOG4 RETURNDATASIZE 0x2A CODESIZE MULMOD SWAP6 0xB1 DUP7 PUSH22 0xE42394964736F6C634300080B003300000000000000 ",
  "sha1": "83bb9de3290792d64fb83166a30d56a92e34e125",
  "source": "// SPDX-License-Identifier: MIT\npragma solidity ^0.8.0;\n\nimport \"@chainlink/contracts/src/v0.8/interfaces/AggregatorV3Interface.sol\";\nimport \"@chainlink/contracts/src/v0.8/VRFConsumerBase.sol\";\n\ncontract Lottery is VRFConsumerBase {\n\n    enum LotteryState {\n        CLOSED,\n        OPEN,\n        CALCULATING_WINNER\n    }\n\n    uint256 constant DECIMALS = 18;\n    uint256 public maxPlayers;\n    address payable[] public players;\n    uint256 public usdEntryFee;\n    AggregatorV3Interface ethUsdPriceFeed;\n    LotteryState private lotteryState;\n    address payable public winner;\n    uint256 public randomness;\n    uint256 public linkFee;\n    bytes32 public keyhash;\n\n    event RequestedRandomness(bytes32 requestId);\n\n    constructor(\n        uint256 _maxPlayers, \n        uint256 _usdEntryFee, \n        address _priceFeedAddress, \n        address _vrfCoordinator,\n        address _link, \n        uint256 _linkFee, \n        bytes32 _keyhash\n    ) public VRFConsumerBase(_vrfCoordinator, _link) {\n        require(_maxPlayers > 1, \"Maximum players cannot be less than 2!\");\n        require(_usdEntryFee > 1, \"Entry fee must be greater than 1 USD!\");\n        \n        usdEntryFee = convertToCorrectDecimals(_usdEntryFee, 0);\n        maxPlayers = _maxPlayers;\n        lotteryState = LotteryState.OPEN;\n        ethUsdPriceFeed = AggregatorV3Interface(_priceFeedAddress);\n        linkFee = _linkFee;\n        keyhash = _keyhash;\n    }\n\n    function enterLottery() public payable returns(bool) {\n        require(lotteryState == LotteryState.OPEN, \"Lottery is currently closed!\");\n        require(convertToCorrectDecimals(msg.value, 18) >= getEntranceFee(), \n            \"Not enough ETH!\"\n        );\n        \n        players.push(payable(msg.sender));\n        if (players.length == maxPlayers) {\n            endLottery();\n        }\n        \n        return true;\n    }\n\n    function getEntranceFee() public view returns(uint256) {\n        (, int price,,,) = ethUsdPriceFeed.latestRoundData() ;\n        uint256 oneEthInUsd = convertToCorrectDecimals(uint256(price), ethUsdPriceFeed.decimals());\n        uint256 entranceFee = convertToCorrectDecimals(usdEntryFee, 0) / oneEthInUsd;\n        return entranceFee;\n    }\n\n    function startLottery() private {\n        lotteryState = LotteryState.OPEN;\n    }\n    \n    function endLottery() private {\n        lotteryState = LotteryState.CALCULATING_WINNER;\n        bytes32 requestId = requestRandomness(keyhash, linkFee);\n        emit RequestedRandomness(requestId);\n    }\n\n    function fulfillRandomness(bytes32 _requestId, uint256 _randomness) internal override {\n        require(\n            lotteryState == LotteryState.CALCULATING_WINNER,\n            \"LotteryState must be CALCULATING_WINNER\"\n        );\n        require(_randomness > 0, \"random-not-found\");\n        uint256 indexOfWinner = _randomness % players.length;\n\n        winner = players[indexOfWinner];\n        winner.call{value: address(this).balance}(\"\");\n\n        // Reset\n        lotteryState = LotteryState.CLOSED;\n        players = new address payable[](0);\n        randomness = _randomness;\n\n        startLottery();\n    }\n\n    function convertToCorrectDecimals(uint256 num, uint256 currentDecimals) pure public returns(uint256) {\n        if (DECIMALS < currentDecimals) {\n            num = num / 10 ** (currentDecimals - DECIMALS);\n        } else {\n            num = num * 10 ** (DECIMALS - currentDecimals); \n        }\n        return num;\n    }\n\n    function getLotteryState() view public returns(string memory) {\n        if (lotteryState == LotteryState.OPEN) {\n            return \"OPEN\";\n        } else if (lotteryState == LotteryState.CLOSED) {\n            return \"CLOSE\";\n        } else {\n            return \"CALCULATING_WINNER\";\n        }\n    }\n\n    function totalPlayersJoined() view public returns(uint256) {\n        return players.length;\n    }\n}",
  "sourcePath": "contracts/Lottery.sol",
  "type": "contract"
}